{
  "contractName": "VinCarContract",
  "abi": [
    {
      "constant": false,
      "inputs": [
        {
          "name": "vin",
          "type": "string"
        },
        {
          "name": "carType",
          "type": "uint256"
        },
        {
          "name": "info",
          "type": "string"
        }
      ],
      "name": "addVin",
      "outputs": [],
      "payable": false,
      "stateMutability": "nonpayable",
      "type": "function"
    },
    {
      "constant": true,
      "inputs": [
        {
          "name": "_address",
          "type": "address"
        }
      ],
      "name": "isAllowedAddressToContract",
      "outputs": [
        {
          "name": "",
          "type": "bool"
        }
      ],
      "payable": false,
      "stateMutability": "view",
      "type": "function"
    },
    {
      "constant": true,
      "inputs": [],
      "name": "getAccessTime",
      "outputs": [
        {
          "name": "",
          "type": "uint256"
        }
      ],
      "payable": false,
      "stateMutability": "view",
      "type": "function"
    },
    {
      "constant": false,
      "inputs": [
        {
          "name": "vin",
          "type": "string"
        },
        {
          "name": "carType",
          "type": "uint256"
        },
        {
          "name": "recordType",
          "type": "uint256"
        },
        {
          "name": "milage",
          "type": "uint256"
        },
        {
          "name": "comment",
          "type": "string"
        }
      ],
      "name": "addRecord",
      "outputs": [],
      "payable": false,
      "stateMutability": "nonpayable",
      "type": "function"
    },
    {
      "constant": true,
      "inputs": [
        {
          "name": "vin",
          "type": "string"
        }
      ],
      "name": "getVinDataSize",
      "outputs": [
        {
          "name": "",
          "type": "uint256"
        },
        {
          "name": "",
          "type": "uint256"
        },
        {
          "name": "",
          "type": "string"
        }
      ],
      "payable": false,
      "stateMutability": "view",
      "type": "function"
    },
    {
      "constant": true,
      "inputs": [
        {
          "name": "vin",
          "type": "string"
        },
        {
          "name": "index",
          "type": "uint256"
        }
      ],
      "name": "getVinRecor",
      "outputs": [
        {
          "name": "",
          "type": "uint256"
        },
        {
          "name": "",
          "type": "uint256"
        },
        {
          "name": "",
          "type": "uint256"
        },
        {
          "name": "",
          "type": "string"
        }
      ],
      "payable": false,
      "stateMutability": "view",
      "type": "function"
    },
    {
      "constant": false,
      "inputs": [
        {
          "name": "_address",
          "type": "address"
        }
      ],
      "name": "disallowAddressToContract",
      "outputs": [],
      "payable": false,
      "stateMutability": "nonpayable",
      "type": "function"
    },
    {
      "constant": true,
      "inputs": [],
      "name": "getOwner",
      "outputs": [
        {
          "name": "",
          "type": "address"
        }
      ],
      "payable": false,
      "stateMutability": "view",
      "type": "function"
    },
    {
      "constant": true,
      "inputs": [
        {
          "name": "_address",
          "type": "address"
        }
      ],
      "name": "isAllowedToView",
      "outputs": [
        {
          "name": "",
          "type": "bool"
        }
      ],
      "payable": false,
      "stateMutability": "view",
      "type": "function"
    },
    {
      "constant": false,
      "inputs": [
        {
          "name": "_address",
          "type": "address"
        }
      ],
      "name": "allowAddressToContract",
      "outputs": [],
      "payable": false,
      "stateMutability": "nonpayable",
      "type": "function"
    },
    {
      "constant": false,
      "inputs": [
        {
          "name": "amount",
          "type": "uint256"
        },
        {
          "name": "receiver",
          "type": "address"
        }
      ],
      "name": "sendFunds",
      "outputs": [
        {
          "name": "",
          "type": "uint256"
        }
      ],
      "payable": false,
      "stateMutability": "nonpayable",
      "type": "function"
    },
    {
      "constant": false,
      "inputs": [],
      "name": "getAccess",
      "outputs": [],
      "payable": true,
      "stateMutability": "payable",
      "type": "function"
    },
    {
      "inputs": [],
      "payable": false,
      "stateMutability": "nonpayable",
      "type": "constructor"
    }
  ],
  "bytecode": "0x6060604052341561000f57600080fd5b336000806101000a81548173ffffffffffffffffffffffffffffffffffffffff021916908373ffffffffffffffffffffffffffffffffffffffff1602179055506114cf8061005e6000396000f3006060604052600436106100ba576000357c0100000000000000000000000000000000000000000000000000000000900463ffffffff16806312129ad9146100bf57806313285fd81461016857806323d41e47146101b9578063362cbf9c146101e257806358a6ed841461029d5780635f282c891461038157806375edbe6714610475578063893d20e8146104ae57806395b64629146105035780639dc7189714610554578063b26867741461058d578063f7ca8431146105e3575b600080fd5b34156100ca57600080fd5b610166600480803590602001908201803590602001908080601f0160208091040260200160405190810160405280939291908181526020018383808284378201915050505050509190803590602001909190803590602001908201803590602001908080601f016020809104026020016040519081016040528093929190818152602001838380828437820191505050505050919050506105ed565b005b341561017357600080fd5b61019f600480803573ffffffffffffffffffffffffffffffffffffffff169060200190919050506106f7565b604051808215151515815260200191505060405180910390f35b34156101c457600080fd5b6101cc6107a7565b6040518082815260200191505060405180910390f35b34156101ed57600080fd5b61029b600480803590602001908201803590602001908080601f0160208091040260200160405190810160405280939291908181526020018383808284378201915050505050509190803590602001909190803590602001909190803590602001909190803590602001908201803590602001908080601f016020809104026020016040519081016040528093929190818152602001838380828437820191505050505050919050506107f3565b005b34156102a857600080fd5b6102f8600480803590602001908201803590602001908080601f0160208091040260200160405190810160405280939291908181526020018383808284378201915050505050509190505061097d565b6040518084815260200183815260200180602001828103825283818151815260200191508051906020019080838360005b83811015610344578082015181840152602081019050610329565b50505050905090810190601f1680156103715780820380516001836020036101000a031916815260200191505b5094505050505060405180910390f35b341561038c57600080fd5b6103e5600480803590602001908201803590602001908080601f01602080910402602001604051908101604052809392919081815260200183838082843782019150505050505091908035906020019091905050610c0a565b6040518085815260200184815260200183815260200180602001828103825283818151815260200191508051906020019080838360005b8381101561043757808201518184015260208101905061041c565b50505050905090810190601f1680156104645780820380516001836020036101000a031916815260200191505b509550505050505060405180910390f35b341561048057600080fd5b6104ac600480803573ffffffffffffffffffffffffffffffffffffffff16906020019091905050610e2f565b005b34156104b957600080fd5b6104c1610ee3565b604051808273ffffffffffffffffffffffffffffffffffffffff1673ffffffffffffffffffffffffffffffffffffffff16815260200191505060405180910390f35b341561050e57600080fd5b61053a600480803573ffffffffffffffffffffffffffffffffffffffff16906020019091905050610f62565b604051808215151515815260200191505060405180910390f35b341561055f57600080fd5b61058b600480803573ffffffffffffffffffffffffffffffffffffffff16906020019091905050611010565b005b341561059857600080fd5b6105cd600480803590602001909190803573ffffffffffffffffffffffffffffffffffffffff169060200190919050506110c4565b6040518082815260200191505060405180910390f35b6105eb6111a2565b005b6105f6336106f7565b156106f257806001846040518082805190602001908083835b602083101515610634578051825260208201915060208101905060208303925061060f565b6001836020036101000a0380198251168184511680821785525050505050509050019150509081526020016040518091039020600001908051906020019061067d929190611224565b50816001846040518082805190602001908083835b6020831015156106b75780518252602082019150602081019050602083039250610692565b6001836020036101000a0380198251168184511680821785525050505050509050019150509081526020016040518091039020600101819055505b505050565b6000600260008373ffffffffffffffffffffffffffffffffffffffff1673ffffffffffffffffffffffffffffffffffffffff16815260200190815260200160002060000160009054906101000a900460ff16806107a057506000809054906101000a900473ffffffffffffffffffffffffffffffffffffffff1673ffffffffffffffffffffffffffffffffffffffff168273ffffffffffffffffffffffffffffffffffffffff16145b9050919050565b600042600360003373ffffffffffffffffffffffffffffffffffffffff1673ffffffffffffffffffffffffffffffffffffffff1681526020019081526020016000206000015403905090565b6107fb6112a4565b610804336106f7565b1561097557608060405190810160405280838152602001858152602001428152602001848152509050846001876040518082805190602001908083835b6020831015156108665780518252602082019150602081019050602083039250610841565b6001836020036101000a0380198251168184511680821785525050505050509050019150509081526020016040518091039020600101819055506001866040518082805190602001908083835b6020831015156108d857805182526020820191506020810190506020830392506108b3565b6001836020036101000a0380198251168184511680821785525050505050509050019150509081526020016040518091039020600201805480600101828161092091906112d3565b916000526020600020906004020160008390919091506000820151816000019080519060200190610952929190611305565b506020820151816001015560408201518160020155606082015181600301555050505b505050505050565b600080610988611385565b610990611399565b61099933610f62565b15610c01576001856040518082805190602001908083835b6020831015156109d657805182526020820191506020810190506020830392506109b1565b6001836020036101000a038019825116818451168082178552505050505050905001915050908152602001604051809103902060606040519081016040529081600082018054600181600116156101000203166002900480601f016020809104026020016040519081016040528092919081815260200182805460018160011615610100020316600290048015610aae5780601f10610a8357610100808354040283529160200191610aae565b820191906000526020600020905b815481529060010190602001808311610a9157829003601f168201915b505050505081526020016001820154815260200160028201805480602002602001604051908101604052809291908181526020016000905b82821015610bd9578382906000526020600020906004020160806040519081016040529081600082018054600181600116156101000203166002900480601f016020809104026020016040519081016040528092919081815260200182805460018160011615610100020316600290048015610ba35780601f10610b7857610100808354040283529160200191610ba3565b820191906000526020600020905b815481529060010190602001808311610b8657829003601f168201915b50505050508152602001600182015481526020016002820154815260200160038201548152505081526020019060010190610ae6565b5050505081525050905080602001518160400151518260000151809050935093509350610c02565b5b509193909250565b6000806000610c17611385565b610c1f6112a4565b610c2833610f62565b8015610ca45750856001886040518082805190602001908083835b602083101515610c685780518252602082019150602081019050602083039250610c43565b6001836020036101000a038019825116818451168082178552505050505050905001915050908152602001604051809103902060020180549050115b15610e24576001876040518082805190602001908083835b602083101515610ce15780518252602082019150602081019050602083039250610cbc565b6001836020036101000a038019825116818451168082178552505050505050905001915050908152602001604051809103902060020186815481101515610d2457fe5b906000526020600020906004020160806040519081016040529081600082018054600181600116156101000203166002900480601f016020809104026020016040519081016040528092919081815260200182805460018160011615610100020316600290048015610dd75780601f10610dac57610100808354040283529160200191610dd7565b820191906000526020600020905b815481529060010190602001808311610dba57829003601f168201915b505050505081526020016001820154815260200160028201548152602001600382015481525050905080602001518160400151826060015183600001518090509450945094509450610e25565b5b5092959194509250565b6000809054906101000a900473ffffffffffffffffffffffffffffffffffffffff1673ffffffffffffffffffffffffffffffffffffffff163373ffffffffffffffffffffffffffffffffffffffff161415610ee0576000600260008373ffffffffffffffffffffffffffffffffffffffff1673ffffffffffffffffffffffffffffffffffffffff16815260200190815260200160002060000160006101000a81548160ff0219169083151502179055505b50565b60008060009054906101000a900473ffffffffffffffffffffffffffffffffffffffff1673ffffffffffffffffffffffffffffffffffffffff163373ffffffffffffffffffffffffffffffffffffffff161415610f5f576000809054906101000a900473ffffffffffffffffffffffffffffffffffffffff1690505b90565b600080600360008473ffffffffffffffffffffffffffffffffffffffff1673ffffffffffffffffffffffffffffffffffffffff16815260200190815260200160002060000154118015610ff95750600042600360008573ffffffffffffffffffffffffffffffffffffffff1673ffffffffffffffffffffffffffffffffffffffff1681526020019081526020016000206000015403115b806110095750611008826106f7565b5b9050919050565b6000809054906101000a900473ffffffffffffffffffffffffffffffffffffffff1673ffffffffffffffffffffffffffffffffffffffff163373ffffffffffffffffffffffffffffffffffffffff1614156110c1576001600260008373ffffffffffffffffffffffffffffffffffffffff1673ffffffffffffffffffffffffffffffffffffffff16815260200190815260200160002060000160006101000a81548160ff0219169083151502179055505b50565b60008060009054906101000a900473ffffffffffffffffffffffffffffffffffffffff1673ffffffffffffffffffffffffffffffffffffffff163373ffffffffffffffffffffffffffffffffffffffff16141561119c57823073ffffffffffffffffffffffffffffffffffffffff163110151561119a578173ffffffffffffffffffffffffffffffffffffffff166108fc849081150290604051600060405180830381858888f19350505050151561117b57600080fd5b3073ffffffffffffffffffffffffffffffffffffffff1631905061119b565b5b5b92915050565b6111ab336106f7565b806111bd575066038d7ea4c680003410155b156112225766038d7ea4c6800034610258028115156111d857fe5b044201600360003373ffffffffffffffffffffffffffffffffffffffff1673ffffffffffffffffffffffffffffffffffffffff168152602001908152602001600020600001819055505b565b828054600181600116156101000203166002900490600052602060002090601f016020900481019282601f1061126557805160ff1916838001178555611293565b82800160010185558215611293579182015b82811115611292578251825591602001919060010190611277565b5b5090506112a091906113c7565b5090565b6080604051908101604052806112b86113ec565b81526020016000815260200160008152602001600081525090565b815481835581811511611300576004028160040283600052602060002091820191016112ff9190611400565b5b505050565b828054600181600116156101000203166002900490600052602060002090601f016020900481019282601f1061134657805160ff1916838001178555611374565b82800160010185558215611374579182015b82811115611373578251825591602001919060010190611358565b5b50905061138191906113c7565b5090565b602060405190810160405280600081525090565b6060604051908101604052806113ad6113ec565b8152602001600081526020016113c1611447565b81525090565b6113e991905b808211156113e55760008160009055506001016113cd565b5090565b90565b602060405190810160405280600081525090565b61144491905b80821115611440576000808201600061141f919061145b565b60018201600090556002820160009055600382016000905550600401611406565b5090565b90565b602060405190810160405280600081525090565b50805460018160011615610100020316600290046000825580601f1061148157506114a0565b601f01602090049060005260206000209081019061149f91906113c7565b5b505600a165627a7a72305820e7b5ced7234b969089cfcef7c6ba24e57b8be14b4dd3b63fcdea64a6ee7deee90029",
  "source": "pragma solidity ^0.4.17;\n\ncontract VinCarContract {\n\n    struct RecordStruct {\n        string comment;\n        uint recordType;\n        uint date;\n        uint milage;\n    }\n\n    struct VinStruct {\n        string info;\n        uint carType;\n        RecordStruct[] records;\n    }\n    \n    struct ContractorStruct {\n        bool allowed;\n    }\n    \n    struct AccessKey {\n        uint timeStart;\n    }\n\n    uint constant _amount = 1000000000000000;\n    address _owner;\n    mapping(string =>  VinStruct) _vinStruct;\n    mapping(address => ContractorStruct) _isAllowedToContract;\n    mapping(address => AccessKey) _isAllowedToView;\n    \n    function VinCarContract() public {\n        _owner = msg.sender;\n    }\n    \n    modifier restricted() {\n        if (msg.sender == _owner) _;\n    }\n    \n    function getOwner() public restricted constant returns (address) {\n        return _owner;\n    }\n    \n    function sendFunds(uint amount, address receiver) public restricted returns (uint) {\n        if(this.balance >= amount) {\n            receiver.transfer(amount);\n            return this.balance;\n        }\n    }\n    \n    function allowAddressToContract(address _address)  public restricted {\n        _isAllowedToContract[_address].allowed = true;\n    }\n    \n    function disallowAddressToContract(address _address)  public restricted {\n        _isAllowedToContract[_address].allowed = false;\n    }\n\n    function isAllowedAddressToContract(address _address) public constant returns (bool) {\n        return _isAllowedToContract[_address].allowed || _address == _owner;\n    }\n    \n    function isAllowedToView(address _address) public constant returns (bool) {\n        return (_isAllowedToView[_address].timeStart > 0\n                && _isAllowedToView[_address].timeStart - now > 0)\n            || isAllowedAddressToContract(_address); \n    }\n    \n    function getAccess() public payable {\n        if (isAllowedAddressToContract(msg.sender)\n            || msg.value >= _amount){\n            _isAllowedToView[msg.sender].timeStart = now + 10 minutes * uint(msg.value) / uint(_amount);\n        }\n    }\n    \n    function getAccessTime() public constant returns (uint){\n        return _isAllowedToView[msg.sender].timeStart - now;\n    }\n    \n    function addVin(string vin, uint carType, string info) public {\n        if (isAllowedAddressToContract(msg.sender)){\n            _vinStruct[vin].info = info;\n            _vinStruct[vin].carType = carType;\n        }\n    }\n    \n    function addRecord(string vin, uint carType, uint recordType, uint milage, string comment) public {\n        if (isAllowedAddressToContract(msg.sender)){\n            RecordStruct memory record = RecordStruct(comment, recordType, now, milage);\n            _vinStruct[vin].carType = carType;\n            _vinStruct[vin].records.push(record);\n        }\n    }\n    \n    function getVinDataSize(string vin) public constant returns (uint, uint, string){\n        if (isAllowedToView(msg.sender)){\n            VinStruct memory vinStruct = _vinStruct[vin];\n            return (vinStruct.carType, vinStruct.records.length, vinStruct.info);\n        }\n    }\n    \n    function getVinRecor(string vin, uint index) public constant returns (uint, uint, uint, string){\n        if (isAllowedToView(msg.sender) && _vinStruct[vin].records.length > index){\n            RecordStruct memory record = _vinStruct[vin].records[index];\n            return (record.recordType, record.date, record.milage, record.comment);\n        }\n    }\n    \n}",
  "sourcePath": "/Users/igarin/tmp/ethereum/pet-shop-dapp-master/contracts/VinCarContract.sol",
  "compiler": {
    "name": "solc",
    "version": "0.4.18+commit.9cf6e910.Emscripten.clang"
  },
  "schemaVersion": "1.0.1",
  "updatedAt": "2018-01-31T16:38:24.631Z"
}